:020000040000FA
:0600000044EF06F01200BF
:020006001200E6
:06000800CCEF04F0120031
:02000E000200EE
:10001000A60C0000F200000005000000A40C000087
:08002000F700000002000000DF
:08002800FF0E0A6E000E006ECF
:10003000016E026E036E046E056E066E076E87EC2F
:1000400000F08DEC00F087EC00F087EC00F087EC1E
:1000500000F087EC00F087EC00F087EC00F087EC14
:1000600000F087EC00F087EC00F087EC00F087EC04
:1000700000F087EC00F08DEC00F08DEC00F087ECE8
:1000800000F087EC00F087EC00F087EC00F087ECE4
:1000900000F087EC00F08DEC00F08DEC00F08DECC2
:1000A00000F080A058EF00F00A2EFBD714EF00F00C
:1000B000BBEC00F093EC00F000C080F0006A93EC21
:1000C00000F000C081F0006A93EC00F000C082F004
:1000D000006A93EC00F000C083F0006A93EC00F03B
:1000E00000C084F0006A93EC00F000C085F0006A64
:1000F00093EC00F000C086F0006A93EC00F000C0C2
:1001000087F0006AC4EF00F0040E8C6EFDD7929069
:10011000A7EC00F09280BFEF00F09290BBEC00F0F3
:100120009280ABEF00F0070E0A6E004680B0002A06
:10013000A2EC00F00A2EF9D70000004680B0002A99
:10014000A6EF00F00000000000000000000000002A
:10015000000000000000000000000000000000009F
:10016000000000000000000000000000000000008F
:10017000000000000000000000000000000000007F
:100180001200080E8C6EFDD71200D9CFE6FFE1CF2A
:10019000D9FFF29EFE0EDB508B6E8C688A68320EA1
:1001A000E66E07EC06F0E5528C1C8C6E8A1C8A6E9B
:1001B000F6D7E552E7CFD9FF1200D9CFE6FFE1CF5E
:1001C000D9FFF29EFE0EDB508B6E8C688A68C80EDB
:1001D000E66E07EC06F0E552F28E00D0E552E7CF6E
:1001E000D9FF1200D9CFE6FFE1CFD9FFFE0EDB50D9
:1001F0008B6EFD0EDB508C6EFC0EDB508A6E00D0D9
:10020000E552E7CFD9FF12000001886B040E885D2C
:1002100029E2896B040E895D23E28A6B040E8A5DF4
:100220001DE28851100DF3CF16F0F4CF17F08B0EAE
:100230001626000E17228951040D1650F324146E51
:100240001750F420156E8A510F011424E96E000E28
:100250001520EA6EEF6A00018A2BE0D7892BDAD7E6
:10026000882BD4D7010E8E6F020E9E6F886B080EFE
:10027000885D09E28851EA6ACB0FE96E000EEA2236
:10028000EF6A882BF4D7030ED16F010EDD6F020EDB
:10029000DF6F010EE06FE16B030EE26F010EE36FA3
:1002A000E46B030EE56F010EDE6FE66BE76F000196
:1002B000F66B1200E3C0E0F0E4C0E1F0E5C0E2F06C
:1002C000E0C016F0176A16BE1768040ED8901636EE
:1002D0001736E806FBE18B0E1626000E1722E1C04A
:1002E00018F0196A18BE1968D89018361936D890BF
:1002F0001836193616501824146E17501920156E1A
:10030000E2C01AF01B6A1ABE1B6814501A24E96E68
:1003100015501B20EA6EEF502DE0E0C01EF01F6A62
:100320001EBE1F68040ED8901E361F36E806FBE17D
:100330008B0E1E26000E1F22E1C020F0216A20BE77
:100340002168D89020362136D890203621361E508C
:1003500020241C6E1F5021201D6EE2C022F0236A53
:1003600022BE23681C502224E96E1D502320EA6E11
:10037000EF0432E10001DF29E66EE0C016F0176AF3
:1003800016BE1768040ED89016361736E806FBE13D
:100390008B0E1626000E1722E1C018F0196A18BE3F
:1003A0001968D89018361936D8901836193616505C
:1003B0001824146E17501920156EE2C01AF01B6A2B
:1003C0001ABE1B6814501A24E96E15501B20EA6EE1
:1003D000E552E750EF6E65D0E0C016F0176A16BE22
:1003E0001768040ED89016361736E806FBE18B0E18
:1003F0001626000E1722E1C018F0196A18BE1968F7
:10040000D89018361936D890183619361650182440
:10041000146E17501920156EE2C01AF01B6A1ABE2E
:100420001B6814501A24E96E15501B20EA6EEF5019
:100430000F0834E20001E607DF2BDF29E66EE0C09B
:1004400016F0176A16BE1768040ED89016361736BF
:10045000E806FBE18B0E1626000E1722E1C018F00D
:10046000196A18BE1968D89018361936D8901836F7
:10047000193616501824146E17501920156EE2C044
:100480001AF01B6A1ABE1B6814501A24E96E155024
:100490001B20EA6EE552E750EF6E03D00001010E1B
:1004A000F66F00018A6B040E8A5D01E3A4D0010E91
:1004B000DB6FDC6B8A51E96EEA6AD890E936EA367E
:1004C000D30EE926000EEA22EE6AED6A896B040E6D
:1004D000895D01E38ED0886B040E885D01E387D0CF
:1004E0008851100DF3CF16F0F4CF17F08B0E1626AF
:1004F000000E17228951040D1650F324146E175064
:10050000F420156E8A510F011424E96E000E152097
:10051000EA6EEF5066E000018851100DF3CF16F03F
:10052000F4CF17F08B0E1626000E17228951040DFA
:100530001650F324146E1750F420156E8A510F01D3
:100540001424E96E000E1520EA6EEF5010081EE12B
:1005500000018851100DF3CF16F0F4CF17F08B0E79
:100560001626000E17228951040D1650F324146E1E
:100570001750F420156E8A510F011424E96E000EF5
:100580001520EA6E010EEF6E0001E60700018851AA
:10059000100DF3CF16F0F4CF17F08B0E1626000EC9
:1005A00017228951040D1650F324146E1750F420AD
:1005B000156E8A510F011424E96E000E1520EA6EA3
:1005C000EF060FE000018A51E96EEA6AD890E93639
:1005D000EA36D30EE926000EEA22DB51EE12DC5198
:1005E000ED120001D890DB37DC37882B75D7892BCB
:1005F0006ED78A2B58D7F36AF46A00D01200F29EA5
:100600000001886B080E885D33E288417F0BE96E3C
:10061000EA6AD890E936EA36D30EE926000EEA22D5
:10062000EF50E66E8851EA6ACB0FE96E000EEA22BF
:10063000E552E750EF6E88417F0BE96EEA6AD89089
:10064000E936EA36D30EE926000EEA22EECF14F0A0
:10065000EFCF15F015C014F0156A8829EA6ACB0FA0
:10066000E96E000EEA2214C0EFFF020E8827CAD7F7
:10067000F28E1200F29ED8DCF28EDDC0DEF0410E6A
:1006800000018115156E821D400BE824146E821D39
:10069000800B1414151004E0DD0502E0DD6B49D079
:1006A000220E8115156E400E8215E824146E800E00
:1006B00082151414151005E0DD5103E0010EDD6F05
:1006C00038D0080E8115156E400E8315E824146E7F
:1006D000800E83151414151006E0030EDD5D03E093
:1006E000020EDD6F26D0040E8115156E831D400BA2
:1006F000E824146E831D800B1414151006E0020EFE
:10070000DD5D03E0030EDD6F14D0060E801506E0FC
:10071000050EDD5D03E0040EDD6F0BD0090E8015C4
:1007200006E0040EDD5D03E0050EDD6F02D080B94A
:100730006AD8E0C0E3F0E1C0E4F0E2C0E5F0000117
:10074000DD51050A4DE0010A41E0070A35E0010AE2
:1007500021E0030A0DE0010A01E054D0E005146E27
:10076000143403E3030EE36F02D0E005E36F4AD0D5
:10077000E029146E030EE76E1418E8AE02D01434AC
:1007800003D0E750D880145402E2E36B02D0E02992
:10079000E36F38D0E129146E030EE76E1418E8AE4B
:1007A00002D0143403D0E750D880145402E2E46B32
:1007B00002D0E129E46F26D0E105146E143403E37E
:1007C000030EE46F02D0E105E46F1CD0E205146E65
:1007D000143403E3030EE56F02D0E205E56F12D097
:1007E000E229146E030EE76E1418E8AE02D014343A
:1007F00003D0E750D880145402E2E56B02D0E2291E
:10080000E56F00D01200DEC0DDF0F29E000180A98D
:10081000FDD7F28E1200D9CFE6FFE1CFD9FF030E4C
:10082000E1260001E751E65D01E1A7D0F0EC05F01B
:10083000F3CF14F0F4CF15F0040E0D6E0E6A14C051
:1008400008F015C009F0A5EC05F004C014F005C0CF
:1008500015F01450DF6EF0EC05F0F3CF14F0F4CF88
:1008600015F0040E0D6E0E6A14C008F015C009F0E4
:10087000A5EC05F004C014F005C015F0010E14C07D
:10088000DBFFF0EC05F0F3CF14F0F4CF15F0040E1D
:100890000D6E0E6A14C008F015C009F0A5EC05F045
:1008A00004C014F005C015F0020E14C0DBFFDFCF4A
:1008B00016F0176A16BE1768040ED890163617364B
:1008C000E806FBE18B0E1626000E1722010EDBCF89
:1008D00018F0196A18BE1968D89018361936D890C9
:1008E0001836193616501824146E17501920156E24
:1008F000020EDBCF1AF01B6A1ABE1B6814501A24B2
:10090000E96E15501B20EA6EEF5032E1DFCF16F092
:10091000176A16BE1768040ED89016361736E80602
:10092000FBE18B0E1626000E1722010EDBCF18F00E
:10093000196A18BE1968D89018361936D890183622
:10094000193616501824146E17501920156E020E01
:10095000DBCF1AF01B6A1ABE1B6814501A24E96E0A
:1009600015501B20EA6E2B0EEF6E0001E62B05D012
:10097000100EE66E22DCE55259D7030EE15C02E26E
:10098000E16AE552E16EE552E7CFD9FF120049D89E
:10099000F28E7AD8FCD71200DACFE4FFE2CFDAFF8A
:1009A000E9CFE4FFEACFE4FFE6529E90F00ECF6E6F
:1009B000010ECE6E0001F3C024F0F4C025F0F32B3D
:1009C000000EF423FF0E245C000E255804E3F36BA5
:1009D000F46B010EF56F800E8B5C02E1080E8B6EDE
:1009E0008B50E8248B6EF251F22BEA6ACB0FE96E42
:1009F000000EEA22EF508C6EF251F22BEA6ACB0F16
:100A0000E96E000EEA22EF508A6E080EF25D01E1F7
:100A1000F26BE552E5CFEAFFE5CFE9FFE5CFDAFF7C
:100A200011000001F26BF36BF46BF56BF66BC168B0
:100A3000070EB46E010E926E936A946A956A896A83
:100A40008A6A080E8B6E8C6AD08EF00ECF6E010E05
:100A5000CE6E210ECD6E800EF26EF29EF28C9F80D5
:100A60009D8004EF01F00001886B080E885D09E2AB
:100A70008851EA6ACB0FE96E000EEA22EF6A882BF2
:100A8000F4D780A9FED712000001F6510DE1C3DEB4
:100A9000F1DD0001F55104E00DDCB1DD0001F56B85
:0C0AA000F60501E101D0F0D712001200B1
:040AAC000E0EF66EC6
:100AB000000EF76E000EF86E00010900F550ED6FA4
:100AC0000900F550EE6F03E1ED6701D03DD009005C
:100AD000F550E86F0900F550E96F0900F550EA6F2D
:100AE00009000900F550E96E0900F550EA6E0900A9
:100AF00009000900F550EB6F0900F550EC6F090093
:100B00000900F6CFEFF0F7CFF0F0F8CFF1F0E8C042
:100B1000F6FFE9C0F7FFEAC0F8FF0001EB5302E17E
:100B2000EC5307E00900F550EE6EEB07F8E2EC0736
:100B3000F9D7EFC0F6FFF0C0F7FFF1C0F8FF0001F2
:0A0B4000ED07000EEE5BBFD71200B8
:060B4A00006A0EAEAEEFE2
:100B500005F00D6C0E1EE86A0E22001E09AEB6EFFF
:100B600005F0086C091EE86A0922001E1EEC06F05A
:100B700009BEC6EF05F000AE000C086C091EE86A5D
:100B80000922046C051EE86A0522000C00BEBDEFB8
:100B900005F00188FF0C08C012F008500D02F4CFD8
:100BA00007F0F3CF06F009500E02F4CF09F0F3CFAF
:100BB00008F00D02F3500726F4500822E86A0922D3
:100BC00012500E02F3500726F4500822E86A092258
:020BD000000C17
:0E0BD200FE0EE3CFF7F0FF0EE3CFF8F01200B7
:100BE000F8C009F0F7C008F0350E0D6E450E0E6E18
:100BF000CBEC05F0062AE86A0722079E07C0F8F04A
:0E0C000006C0F7F0F7C0F3FFF8C0F4FF1200D3
:020C0E00FF0ED7
:100C1000E350276EEF0E01D0F30EE76EE72E0EEFD6
:100C200006F00C0E266EE76AE72E14EF06F0262E6D
:0C0C300013EF06F0272E0CEF06F0120068
:040C3C00056A046AD7
:100C4000100EE76ED89008360936043605360D507A
:100C5000045C0E50055805E30D50045E0E50055A15
:080C6000082AE72EF0D712006C
:080C6800000EF36E00EE00F037
:100C7000060E01D81200EA6002D0EE6AFCD7F350EB
:080C8000E9601200EE6AFCD7E6
:080C880015EE00F025EE00F06E
:100C9000F86A019C56EC05F003EC00F0C7EC04F098
:040CA000FBD712006C
:020CA40001004D
:050CA600000000000049
:00000001FF
